:400000000080002011000000D1000000D100000008B5044B1A6803F53F5302331A6000F059F800BFFA46004010B5054C237833B9044B13B10448AFF300800123237010BD84
:400040003881FF1F00000000E41A0000084B10B51BB108480849AFF300800848036803B910BD074B002BFBD0BDE81040184700BF00000000E41A00003C81FF1F0881FF1FE5
:400080000000000008B562B60020014600F050FB00F086FB0028FBD000F098FC00F008FDC0B2094B18700028F8D0084C204600F025FD2046044B197800F0D4FC00F012FDDD
:4000C0000028FBD0EAE700BF5C81FF1F6081FF1FFEE700BF08B5104E104D16E029686B68AC68002204E051F8040B43F8040B0432A242F8D1E868002203E0002143F8041B9E
:4001000004328242F9D11035013E002EE6D101F0AFFCFFF7B7FFFEE701000000B01C000008B5124A124B1A60124A136843F40073136000230AE0032B03D80F4A52F82310C8
:4001400000E00E490E4A42F8231001332F2BF2D90C4B1A780C4B1A70094A0C4B1A6000F0C3F800220A4B1A6008BD00BF0004FA050CED00E014ED00E000000000D10000008E
:400180000080FF1FBC7600400481FF1F08ED00E00081FF1FFEE700BFF0B40022174611E050F82760F3B226F0FF0608E001EB420511F812406D78A5550132013BDBB2002B55
:4001C000F4D10137252FEBD9F0BC7047064B1B78DBB203F00701054A11701B09013213704422034B1A707047CF0100496E5800407658004008B50A46002101F06AFC08BD05
:4002000008B501F05BFC08BD38B540F65F122A4B1A80182202331A7042F20F7202331A801B2202331A70254825490422FFF7E8FF0622244B1A705222A3F580731A70224BE3
:400240001B78DBB2214A13704FF4E162204B1A8041F25122023B1A80002419250CE01D4B1B7803F0010343EA440404F003044FF4F07001F0C1FB013D0DB1032CEFD115B9AF
:400280000320FFF787FF144A4FF48073138007231370002311490B7048200231087013700532137002220E4B1A700E4A137843F00303137038BD00BF8040004000410040A8
:4002C000FC0E0048004300400F010049A14600402242004025420040044000400640004001400040A243004038B572B6404A137843F00403137000240CE03E4963001A199A
:4003000052000A4423445B00C8589188FFF772FF0134E4B2052CF0D900240BE03549A3001A1952000A44506A916A8022FFF768FF0134E4B2002CF1D04FF090402E49FFF70B
:400340002BFF2E4A137843F0020313701032137843F0020313702A4C237843F040032370A2F58632513A137843F010031370254825490822FFF744FF244825490822FFF78D
:400380003FFF244824490A22FFF73AFF234824490A22FFF735FF234823490822FFF730FF224823490822FFF72BFF224822490822FFF726FF214822490A22FFF721FF2148BE
:4003C00021490A22FFF71CFF204A137843F0080313701F4D61232B70FFF716FF81232B70FFF7F4FE1B4821460E22FFF709FF38BDE8460040E81A0000980000480350014012
:40040000A043004002510040A40E0048C2510040AC0E0048F0510040B40E004810510040C00E004822510040CC0E004832510040D40E004842510040DC0E004850510040CD
:40044000E40E004860510040F00E00482243004000480040B043004001BE704708B5034B1B7A03FB00F001F0C7FA08BD0C81FF1F70B504460E46074B1D681F2802D90020A9
:40048000FFF7EAFF04F01F04103455F8240045F8246070BD08ED00E038B504460D46072902D90020FFF7D8FF1F2C02D90020FFF7D3FF04F01F0000F1604000F564406D0193
:4004C000EDB2057038BD00BF134B1B78DBB20360124A127843EA02230360114A127843EA024303600F4A127843EA026303600E4B1B78DBB243600D4A127843EA0223436034
:400500000B4A127843EA024343600A4A127843EA02634360704700BF0301004904010049EC4600400201004901010049000100490501004906010049F8B501F065FA074667
:40054000404A137843F0010313701032137843F00103137001263C4B1E700225943B1D7002F5E2521B32137803F07F0313700020FFF774FF354C237803F0F9032370344AC6
:40058000137803F0DF0313702378334323703046FFF764FF2820FFF761FF2E4B1A7802F07F021A701A7802F0BF021A7023782B4323702846FFF752FF237843F004032370B7
:4005C0000024254B1C7001331C70384601F020FA17200721FFF760FF17202049FFF748FF18200721FFF758FF18201D49FFF740FF15200721FFF750FF15201A49FFF738FF1A
:4006000020460721FFF748FF20461749FFF730FF30460721FFF740FF30461449FFF728FF28460721FFF738FF28461149FFF720FF0C200721FFF730FF0C200E49FFF718FF98
:40064000F8BD00BFA54300409D6000409443004012600040F851004084600040A1100000710E00009D100000E50F00001D10000059100000A910000008B5214B1870002337
:40068000204A1370204A1370204A1370204A1370204A1370204A1370204A1370204B4FF400021A604FF080721A604FF400121A6001221A6002221A6004221A6011B1012954
:4006C00006D00BE0174A137803F0FE0313700AE0144A137843F00103137004E0114A137843F00103137003220F4B1A708022203B1A70012001F080F904220C4B1A7008BDDE
:400700008B82FF1F8A82FF1FFC81FF1FFD81FF1FFE81FF1F8E82FF1FFF81FF1FFB81FF1F00E100E009600040286000401260004038B505460C46064B1B7823B9FFF7FCFE0C
:400740000122034B1A7028462146FFF795FF38BD5481FF1F00230A4A13700A4A13700A4A13700A4A13700A4A13700A4A13700A4A13700322094B1A708022203B1A707047F2
:400780008A82FF1FFC81FF1FFD81FF1FFE81FF1F8E82FF1FFF81FF1FFB81FF1F28600040014B1878704700BFFD81FF1F00EB40008000024B18444078704700BF1C82FF1FE1
:4007C000431EDBB2072B0BD8064B00011A18185C00F00F00537843EA0020023880B2704700207047FC5F0040431EDBB2072B3BD8F0B4074600EB40039B001C4C2344DB8833
:400800009BB2C3F500739A4207D900EB40039B002344DA88C2F5007292B200EB40039B00124C2344DB7843EA1223114D04012E192B55D3B2737039B909E0CE5C3D010D4C14
:40084000665501339BB200E000239342F5D3430003449B00054A134400225A705A79D2B20001054B1A54F0BC704700BF1C82FF1FFC5F004078600040FE5F0040431EDBB2B3
:40088000072B0BD8430003449B00054A134400225A705A79D2B20001024B1A54704700BF1C82FF1FFE5F004070B5D9B1054614460E46C8B1082819D8FFF782FFA04203D21A
:4008C0002846FFF77DFF0446002305E02901094A525CF25401339BB2A342F7D32846FFF7CDFF04E0002402E0002400E00024204670BD00BF7860004010B4FF2400220EE082
:400900000A4B9B5C03EB43039B0009490B449B78DBB2834201D1144602220132D2B2012AEED920465DF8044B704700BFE881FF1F2482FF1F10B5204C2079FFF7DDFF23789B
:4009400013F0800F0ED06378DBB2212B2FD11B4B07221A80C0EBC000194A1044586000F0F5FA10BD144B5B78DBB2202B02D0222B10D01EE0114A07231380C0EBC0031049BE
:400980000B4453600F4A135C43F00103135400F005FB10BD084B9B780B4A22F81030094A135C43F00203135400F090F910BD002010BD002010BD00BF006000400C82FF1F71
:4009C0001C81FF1FF081FF1FF481FF1F10B500241F4B1C701F4B1C705C700AE01E4B185DC0B2431EDBB2072B01D8FFF747FF0134E4B2012CF2D9194B1B7813F0FF0F1AD055
:400A0000154B1B7813F0FF0F17D0154B1B7813F0FF0F14D0114B1B78DBB2082B11D80E4B1B78DBB2082B0ED80D4B1B78DBB2082B0BD8002010BD012010BD012010BD012041
:400A400010BD012010BD012010BD012010BD00BF5581FF1FF081FF1FE481FF1FE081FF1FE881FF1F70B506460D460E4B1B780E4AD45CE4B204EB44039B000C4A13441B8924
:400A80009BB28B4208D204EB44039B0013441D89ADB20020FFF7E0FC204631462A46FFF7A3FE70BD5581FF1FE081FF1F1C82FF1F08B5094B1B78094AD05CC0B200EB400320
:400AC0009B00074A13445B78DBB2012B02D1FFF777FE08BD002008BD5581FF1FE481FF1F1C82FF1F08B5034B1B78034AD05CFFF75DFE08BD5581FF1FE081FF1F08B5014668
:400B0000074B1B78074AD05CC0B200EB40039B00054A13441A8992B2FFF7C6FE08BD00BF5581FF1FE481FF1F1C82FF1FC37803F0030390F9020000280FDA032B06D002F054
:400B400001030B48C15442F001020EE0C2F380030848C15442F0040207E0032B05D0C2F340030548C15442F002021046704700BFE081FF1FE881FF1FE481FF1F1C4B19784A
:400B80001C4A13880B449BB2138000230EE01A4A51680978C9B21948C1545168013151600133DBB21188013989B21180124A128892B20AB1072BEAD90D4A1278D2B2082AE8
:400BC00000D05BB10E490A7882F080020A700F210C4A117002210C4A117004E0022209490A7009490A70094A1370014A13707047FB81FF1F8882FF1F0C82FF1F00600040C8
:400C00000082FF1FFA81FF1F8A82FF1F1882FF1F0222074B1A708022064B1A700F22064B1A700023054A1370054A1370012070478A82FF1F0082FF1FFA81FF1FFB81FF1F74
:400C40001882FF1F08B5FFF799FF08BD10B4184B197801F00F010239C9B2164A13880B449BB21380002010E0134B5C68134A125CD2B222705A6801325A600130C0B2013974
:400C8000C9B21A88013A92B21A800B4B1B889BB20BB10029E8D10A4B19700A4A137883F0800313700B22084B1A705DF8044B7047296000408882FF1F0C82FF1F0060004042
:400CC0001882FF1F0082FF1FFA81FF1F0623064A1370064A13708022054B1A700022054B1A700120704700BF8A82FF1FFA81FF1F0082FF1F1882FF1F064B9B6843B1054B72
:400D00009A6810709A6804490988518000229A60704700BF0C82FF1F8882FF1F08B5134B1A78D2B21A701B78DBB213F0800F02D00F4A137008BD0220FFF7DEFF0D4B1B785A
:400D400003F06003202B05D0402B06D043B900F095FC06E000F060FE03E000F037FE00E0002010B90322024B1A7008BD28600040FA81FF1F0060004008B5084B1978084A85
:400D800013880B449BB213800022064B1A700120FFF7B2FF0322044B1A7008BDFB81FF1F8882FF1F8A82FF1FFA81FF1F08B50B4B1B78DBB2042B06D0062B07D0022B0BD113
:400DC000FFF7DAFF08BDFFF741FF08BD0320FFF793FF0322024B1A7008BD00BF8A82FF1FFA81FF1F08B50022044B1A700120FFF783FF0322024B1A7008BD00BF8A82FF1F7B
:400E0000FA81FF1F08B50B4B1B7813F0FF0F07D0084A137843F0800307490B70002313700022064B1A700120FFF766FF0322044B1A7008BD8E82FF1F086000408A82FF1F4B
:400E4000FA81FF1F08B5094B1B78DBB2042B06D0062B07D0022B07D1FFF7F4FE08BDFFF7C1FF08BDFFF7CEFF08BD00BF8A82FF1F08B5284B1B78DBB213F0100F48D013F070
:400E8000800F0CD003F00F03012B16D1FFF746FF214B1B7813F0800F11D1012312E013F0400F03D0FFF7CEFF01230BE013F0200F07D0FFF77BFF012304E0002302E000234B
:400EC00000E0002323B3134B1B7813F0800F1FD1124B1B78124A12781343124A13701278D2B29A4214D10C4B1B78DBB2094A127812F0800F07D1084B1B78DBB2054A1370CA
:400F0000137803F00F03044A1278D2B29342EAD108BD00BF28600040FA81FF1F0082FF1F1882FF1F296000400022064B1A80064B9B682BB1044A916800230B709268538040
:400F4000704700BF8882FF1F0C82FF1F08B50F4B1B889BB213B9FFF75BFE15E002220C4B1A7000220B4B1A70FFF7DEFF0A4AD179937943EA0123054A128892B29A4201D958
:400F8000024A1380FFF7FAFD012008BD0C82FF1F8A82FF1F0082FF1F0060004008B504220B4B1A7080220B4B1A70FFF7BDFF0A4AD179937943EA0123084A128892B29A426B
:400FC00001D9064A13800B22054B1A70012008BD8A82FF1F0082FF1F006000400C82FF1FFA81FF1F0A4A137803F0FE031370094B9B7C094B1B7B03F00303012B04D0064AA4
:40100000D37B83F08003D3730122034B5A7370470B600040FC5F00401C82FF1F0B4A137803F0FD0313700A4B93F82230094B1B7E03F00303012B04D0064AD37E83F080032A
:40104000D3760122034B5A76704700BF0B600040FC5F00401C82FF1F0D4A137803F0FB0313700C4B93F832300B4B93F8243003F00303012B06D0084A92F8273083F080037B
:4010800082F827300122044B83F82520704700BF0B600040FC5F00401C82FF1F704700BF08B5FFF757FB08BD08B500F09BFC08BD70B588B0054603AC174E0FCE0FC4336865
:4010C000237035B322232B7003236B7001A8FFF7FBF9002402231AE008AA224412F81C2C08A901EB121111F8141CE954581C00212954981C02F00F0208AE324412F8142CDF
:401100002A54DA1CA9540134E4B20433DBB2212BE2D908B070BD00BF181B000010B401223DE0114613010C242148C45402EB42039B00204803445B7913F0FF0F12D002EB81
:4011400042039B0003441B7913F0800F04D01001194B03449C700AE01001174B03440820987004E01001144B0344802098704B000B449B000F480344DC88E4B208010C4944
:4011800001448C71D888C0F30720C871D888C0B20871DB88C3F307234B710132D2B2082ABFD9FF22054B1A705DF8044B704700BF706000401C82FF1FFC5F00400A60004089
:4011C000074B1B78074A02EBC30253681A7C824203D903EBC003586970470020704700BF8B82FF1F2C1B0000F8B5404B1B7813F0FF0F79D03D4B18780138C0B2FFF7E0FF28
:40120000047AC2683A4B1878C0B200236AE01178814264D13749095CC9B25578A9425ED1917801F07F01D67806F00306DFF8C8E04D000D44AD000EEB05074FF0000C87F8EA
:4012400003C092F802C087F804C092F803C00EF805C095883D8192F90250002D0DDA012E01D1072700E00D274D000D44AD00224E35446F7101266E700CE0012E01D10527C3
:4012800000E009274D000D44AD001B4E35446F7100266E70DFF868E00F010EEB07060125B57001FA05F529448900134D29440D89C5F307250EF807500D89EDB27570CE888E
:4012C000F6B20E4D3D44AE71CE88C6F30726EE71CE88F6B22E71C988C1F30721697108320133DBB2A34292D3F8BD00BFFD81FF1FFE81FF1F0882FF1F1C82FF1F70600040A6
:40130000FC5F0040034B1A78034B03EBC2035868704700BF8B82FF1F2C1B000008B5074B18780138C0B2FFF74BFF28B14268127900EBC203586908BD002008BDFD81FF1F3A
:401340002DE9F84300220EE06F4E53009D18AD00741900217155A170E1702181A172617061710132D2B2082AEED940B90AE000226649CA546649CA540133DBB200E0002359
:40138000012BF4D9634B1B7813F0FF0F00F0B980604B18780138C0B2FFF712FF80464368DB7913F0400F05D05B4A137843F00103137004E0584A137803F0FE03137098F8DE
:4013C00008704FF0000901266CE0D8F80C50002464E0AB7803F07F039E425CD1314606EB46039B00484803441B899BB2A888834205D206EB46039B00434A134418812B78AC
:401400004248C35CDBB26878834244D195F802C03D484B000B449B0000EB030E8EF804C095F803E000F803E0EB7803F0030395F90200002811DA012B02D14FF0070C01E0F1
:401440004FF00D0CDFF8C0E04B0058188000704480F805C00123437012E0012B02D14FF0050C01E04FF0090C27484FEA410E0EEB01039B00034483F805C0194600234B70D1
:40148000AB790A2B01D0022B05D1284631464A46FFF74CFB814608350134E4B2BC4298D30136F6B2082E90D9D8F80C0000220CE0837803F07F0310F8084B03EB43039B0013
:4014C00016490B449C700132D2B2BA42F0D3FFF725FF134B1860002301210EE00A4C4A00501880002044C380028913449BB203F0010213449BB20131C9B20829EED9FFF706
:401500000DFEBDE8F88300BF1C82FF1F0882FF1FF881FF1FFD81FF1FFF81FF1F2482FF1F0482FF1F08B5154B1A7902F07F02531EDBB2072B20D8530013449B0010490B44EC
:40154000997841F0010199700021D970597841F0020159701B7913F0800F05D01201094B13448D229A7004E01201064B134489229A70FFF7ABFB08BD002008BD006000403A
:401580001C82FF1FFC5F0040264B1B7903F07F035A1ED2B2072A43D810B55A001A44920021490A44917801F0FE0191700021D17019017F241D484454517801F0FD015170BC
:4015C000127912F0800F14D003EB4302920016490A445278D2B2012A05D11B0102461A440C23937019E01B01104A1A440D23937013E003EB430292000B490A445278D2B28E
:40160000012A05D11B01094A1A440823937004E01B01064A1A4409239370FFF757FB10BD00207047006000401C82FF1FFC5F004010B50E4B1C79E4B20D4B18780138C0B212
:40164000FFF7BEFD43681B799C4201D9022C0AD8084A135DDBB208490B55044B9B78DBB21355012010BD002010BD00BF00600040FD81FF1F0882FF1FF881FF1F10B59B4B9B
:401680001B78DBB200219A4A118013F0800F00F0AD80964A5278D2B20A2A00F27281DFE812F06900700170017001700170010B007001920070019A008C4BDB78DBB2012B1B
:4016C00009D1FFF71FFE4268894B5A6012221A80FFF73CFC10BD854BDB78DBB2022B13D1824B9878FFF76CFD002800F04C8142687F4B5A605A68D1785A68927842EA0122C6
:401700001A80FFF723FC10BD784BDB78DBB2032B05D02CE00A7811440133DBB201E000237449724A9278D2B29A4203D90A7812F0FF0FEFD16D4B9B7813F0FF0F0BD06B4B61
:401740009B78DBB26C4A127C934204D16B4C2046FFF7AEFC21460B7813F0FF0F00F015810B78634A13805160FFF7F0FB10BD00F053F910BD13F0030317D0022B40F007819D
:401780005B490B80594B1B7903F07F0303EB43039B005B4A13449A78D2B25A4B1A7000225A704B60FFF7D2FB10BD514902230B80554B1A78D2B2534B1A7000225A704B60D7
:4017C000FFF7C4FB10BD4A4B01221A804F4A5A60FFF7BCFB10BD464A01231380434B1B794B490B445360FFF7B1FB10BD3F4A5278013A0A2A00F2CD80DFE812F04B00CB00FA
:401800009600CB000B00CB00CB00CB001300CB003000364B9B78DBB23E4A1370FFF756FA10BD324B9B7803F0FF041BB1601EC0B2FFF7C6FC04B110B9002C40F0AC80334B10
:401840001B78DBB29C4206D0304B1C700120324B1870FFF775FDFFF739FA10BDFFF7E8FE002800F09A80214A1379DBB21279D2B22A490A702A4AD25C2549C95CD3B28B42F4
:4018800004D00122244B1A70FFF7AEFCFFF71EFA10BD03F00303012B17D04BB1022B7ED1124B9B7813F0FF0F7BD1FFF76DFE10BD0E4B9B78DBB2012B75D1134A137803F0F8
:4018C000FD031370FFF702FA10BD084B1B79DBB2012B6AD8054B98781B79DBB21149CA5C22EA0002CA54FFF7F1F910BD006000400C82FF1F941B0000781C00009082FF1F2B
:401900001C82FF1F5881FF1FFF81FF1FFD81FF1F0882FF1F8E82FF1FFC81FF1FFE81FF1FF881FF1F8C82FF1F03F00303012B17D04BB1022B3BD1224B9B7813F0FF0F38D10E
:40194000FFF7F0FD10BD1E4B9B78DBB2012B32D11C4A137843F002031370FFF7B7F910BD174B1B79DBB2012B27D8154B98781B79DBB21549CA5C22EA0002CA54FFF7A6F9DC
:4019800010BD002010BD002010BD002010BD002010BD002010BD002010BD002010BD002010BD002010BD002010BD002010BD002010BD002010BD002010BD002010BD00BFB8
:4019C00000600040FF81FF1F8C82FF1F044B1B7813F0800F01D0024B5B780020704700BF00600040024B1878C0F38010704700BF8F450040000000000230800803D000BFEC
:401A000001380046FCD17047EFF3108072B6704780F31088704700BF08B5124B1B7803F00303012B02D0022B04D00FE00D4B1B79DBB20CE00B4B1B7903F07F0303EB430345
:401A40009B00094A13449B78DBB200E00023074A1268D35C022B02D1FEF76CFF08BD002008BD00BF006000402482FF1F0482FF1F0E4B70B51E460E4C0025E41AA410A542B9
:401A800004D056F8253098470135F8E700F0FEF8084B094C1E46E41AA4100025A54204D056F8253098470135F8E770BD981C0000981C0000981C0000A01C000010B5431E75
:401AC0000A44914204D011F8014B03F8014FF8E710BD03460244934202D003F8011BFAE7704700000000000000000140800600070140000900140140000800400140000AC0
:401B0000004C0140000200500140200080060140240E004880000000303132333435363738394142434445460000000001000000341B000001000000781C0000000000001D
:401B400000000000010000004C1B000001000000341C000003000000781B00000000000000000000000000000000000000000000741B0000020A00000000810308000200ED
:401B80000100820240000A000100030240000A0002030000040309042C0343007900700072006500730073002000530065006D00690063006F006E00640075006300740037
:401BC0006F007200100355005300420055004100520054003803430044004300200043006F006D006D0075006E00690063006100740069006F006E00200049006E00740005
:401C0000650072006600610063006500260343004400430020004400610074006100200049006E0074006500720066006100630065000000090243000201018032090400EF
:401C4000000102020103052400100104240202052406000105240100010705810308000A09040100020A00000407058202400000070503024000000012010002020000089A
:401C8000B40432F20100010280010000F8B500BFF8BC08BC9E4670474D00000021010000F8B500BFF8BC08BC9E46704729000000C01C00000881FF1F3000000080010000F9
:401CC000000000000000E02EC05D00001800000000366E0100C2010000000800C201000000080000A1200000000002000000000000000000000000000000000000000000A3
:401D000000000000000000000000000000000000000000000000000000000000000000000000000000000000000000000000000000000000000000000000000000000000A3
:401D40000000000000000000000000000000000000000000000000000000000000000000000000000000000000000000000000000000000000000000000000000000000063
:401D80000000000000000000000000000000000000000000000000000000000000000000000000000000000000000000000000000000000000000000000000000000000023
:401DC00000000000000000000000000000000000000000000000000000000000000000000000000000000000000000000000000000000000000000000000000000000000E3
:020000040003F7
:0200000480007A
:4000000001450040095200400A64004006650040010301406A0401403A0501400E060140490701405D08014055090140600A0140480B0140660C01404A0D0140580E014076
:400040003A0F0140641401404B1501405F160140461701406A1801404A190140571A01404C1B014003400140044101400642014003430140074401400545014006460140C9
:400080000647014009480140114C01401E4D014007500140015101407E02082009200C4428C829512C0260A861887C408538860F877288388A728B388C0F8D388E728F0D7F
:4000C000840F860F870F89728A728B38EA0401020216032C051D076008280A150C280E130F401780181619501A291B251F8029182A022B242C402D1D2E092F2030073180A4
:400100003304341B357836603703388039803A223B203F054021410545E0460B470C481649FF4AFF4BFF4EF04F44500C580459045A045F0166C06A406B028128881F8938B5
:400140008A608B048C1F8E2091189322945495209621971898189A219D019F06A112A240A320A920AE2BB001B13EB206B478B501B808BA20BE05BF10C035C104C50CC6E00D
:40018000C7B0C829C9FFCAFFCBFFCEF0CF44D00CD418D804D904DA04DB04DF01E6C0EA40EB02004003840440051007050A040F281150154118401A041B901D181E4021D102
:4001C000220423042610278029602B092D112F8031043290362037A539803A023B063C023F2041114282470549414D404E204F085348540155105D0266806708844086049A
:400200008A10C0CBC262C493CAACCCDECEABD0CCD218D680D830090111021E0126013102320135013E043F115401580459045B045F0101800224088009210B100F0110A807
:400240001201161019161B881F042004212022052301274829902A012B80308832213320360138243A803C103D2040804280432A480149104A804B1052105A085C025E40D8
:400280005F2869146B0270B881018204840189148C12924093849620970A984099219B209D06A190A680A701A940B118C007C28FC42FCA0DCC8FCE2ED007D20CD6F2E20163
:4002C000E609EE0405E711021202131515441601172A198021E72A012D212E022F4A3001310733803402356037183E113F40403441054206440147EC483049FF4AFF4BFF9D
:400300004C624DA04EF04F41500C5418580459045A045B045F016640670269106A306B106D106E106F1281E382D3830C8482850488C3890C8CD38D2C8E0C8FC3901C91C3E2
:4003400092C3940F952F96D097C099829C419D089E20A008A3C3A404A541A80CA910ACDFADEFB0C0B1C0B220B30FB41CB520B60FB710BA80BB08BF50D804D904DF010180AD
:400380000228034008800A800B200FA010A915031609180419841A041B811D101F0121492214242026812704286B2E423141332834103601370438823B143C084440458959
:4003C0004E014F205609580259085A0A5D01614063016510670282018304868088048A028C018D0890C09114928093209408960497159B019C229D049E409F40A0A8A3589F
:40040000A402A509A610A781AB20B001B280C00FC23DC4CFCA9FCCEFCE4FD0D0D230D680D830E0A0EA80EC20011005040819095C0AE20BA10CFF0D5C0FA21099126414E7CD
:4004400015181618180119081C101F8321E722A623182408270428182DFF2E01301F312032383340349835983640371F388039023A0A3BA03F044005454049FF4A074BFF38
:400480004C404D204EF04F05500856025712580459045A045B045F01604061A86240632085148F0395109601970C990C9A019B119D10A909AB10AD1CAF02B001B71FBE0124
:4004C000C004C740C9FFCA07CBFFCC40CD20CEF0CF05D008D418D804D904DA04DB04DF01E040E1A8E240E32001800308082009080A400B010E2410021102131418801A40D0
:400500001B581F01215022462540280229842B802C012F043028334036403728380839A03A023B203C483D80468048404A404B805204540157205A085E0265206702691485
:400540006B0170A872027A017B019388980199209B289C029E44A004A440A602AE80AF01C003C26FC40FCA3BCC7ECE5FD080D208D682D830E080EA02040F073508100A0341
:400580000F80100411CA1209133415131601176C19131BE41C20240F250327042BC83001321833A83420350F360637F038883BA83E514032410645E046C0470B481A49FF56
:4005C0004AFF4BFF4EF04F44500C5401580459045A045B045F0166C06A406B028102831585E7880189E78D808E04920399449B2AA204AD21AF4AB180B202B318B404B56093
:40060000B601B707BE10BF04C024C101C205C406C6E0C70CC818C9FFCAFFCBFFCC62CDA0CEF0CF41D00CD418D804D904DA04DB04DC01DF01E640E702E910EA30EB10ED104B
:40064000EE10EF12020203080408060C072009010C010EA00F221240170819A01B081E481F44212122092301264027282A802C202F0431203401372839543A013B013C8007
:400680003E084002410143204604470849404A084C044D014F02510852105424571059025D015E686004618090049154960299429C029D809E119F01A181A320A528AA04F6
:4006C000AB01C063C2B8C428CA68CCE4CE5FD06DD22CD6F1D80CEA04011004FF051808F309080A0C0C410F01100F110112F01380141C153916E31742188219391B441EF340
:40070000200823062404280C29672B182CC32D7F30C03180322C3320340F351F361C374039803A283B203F0456025712580459045B045F01860496019A029E019F01A60256
:40074000AE04B002B404B501B601BE51C030C105C5D2C602C710C827C9FFCAFFCBFFCDA0CF04D018D280D405D804D904DA04DB04DC10DD11DF01E040E2C0E440E540E6C077
:40078000E8C0EAC0ECC0EEC00120022003010610084009200A220B400D080E010F081020120113221580170819721A011B281C041D801F0120402140221427082842291052
:4007C00032103309374038683A0247084D014F88550157405A085D815E08695470347202732277408B488C028E20C027C2EFC4AFCA0DCC17CE0FD040D210D6D2000204A00F
:4008000009060B280C810D260E600F18108011141328140415261618170818481A801B2A2101271028612A882CE02E11311E32F8330134033604372038203B223E403F4448
:400840004041410645EB46C0480B49FF4AFF4BFF4EF04F44500C5401580459045A045B045F0166C06A406B02830384738501860C87168A088B088E35940395019614970E21
:40088000991C9B03A473A604A84AAA14AB1CB010B260B30FB40FB51AB808BA20BB28BE05C003C640C9FFCA07CBFFCC40CD20CEF0CF05D008D804D904DA04DF01E040E1A898
:4008C000E240E320004001080380040C0530060108020A140F20120A171819401A141B201C041D081E40204822642510271829012B202C102D202F10321A371838403B20A7
:400900003C043E203F0240404380450849094A08531056315701581059015A8882108380840486048A028C428E089408964099109D409E119F10A310A510A620A810B72113
:40094000C0EDC22EC463CA23CC67CEECD049D204D60FE002E402E604E804041C0622081409010D021430160C18091A101E032410282C2A112C40330134603502361F38203D
:400980003F144061410245E046CE470B481E49FF4AFF4BFF4EF04F44500C5401580459045A045B045F0166C06A406B02800C8271832685628620870C8E038F1090149101F1
:4009C00094DC962299589B069C099ED09F18A010A180A240A410A6ACAD62AF1CB0E0B160B380B51EB61FB701B902BA02BB20BF45C005C604C9FFCA07CBFFCC40CD20CEF0AD
:400A0000CF05D008D401D804D904DA04DB04DF01E040E1A8E240E320018203200604071009800A200B800C080E0510801304161919821A021B011D101E07229624202708BF
:400A400029012B013180321138803B063E103F80451046094A024B024C0C4F0150C056045750584059215A085E605F097A107B108290894093849620970298409921A1808D
:400A8000A621A701AB42B302B580C06DC2EDC4ECCA09CC0DCE3BD030D228D6FFE404EA06EC40EE08000202150302042106CA084409010A2A110119011F02246728673007AB
:400AC000310132803302346036183E403F04403541044201440645C047E0482249FF4AFF4BFF4C624DA04EF04F41500C580459045A045F016640670269106A306B106D102C
:400B00006E106F128021824A85E7880289E78A158C8090449180922A9502971599449B2AA4E7A8E7A921AB4AB060B118B207B307B418B560B680B780BE10BF01C051C103DC
:400B4000C202C404C50CC60EC805C9FFCAFFCBFFCC62CDA0CEF0CF41D00CD602D711D804D904DA04DB04DF01E640E702E910EA30EB10ED10EE10EF1200020140030805193C
:400B80000A40102817281A4A1B081C201D911F20214922282501260429203108322033013680372239143E13401441414340469249804A104E87524057015A206A106B2A6F
:400BC00073158C128E048F019044911492209408971599809B019CA29D019E409F40A402A581A638A720A810B018B540B640C07BC208C466CA04CCB7CEA6D0DFD238D60489
:400C0000E080E404E820EA02EC40EE08004104F30518060C08C309080CFF0F0110821306141C153916E3174219391B441C0F1D101EF02008210123802404280C29672B184A
:400C40002D7F2EF330C03180322C3320340F351F361C374039803A283B203F0456025712580459045B045F0182028308853187468C01916C93039531970E9E02A713AF4C91
:400C8000B202B330B54AB601B70FB908BBA0BE44BF04C002C540C9FFCA07CBFFCC40CD20CEF0CF05D008D418D804D904DA04DB04DF01E040E1A8E240E3200002018002100E
:400CC0000308044109800A600F0210801202131419161A011F442001221423402729280229902A922C012F20308031043212370938283B403F0947204E404F0157205A0859
:400D00005D02670A682869407094731481848320840388018A028B418E408F0C904092409302954096019C029E90A202A309A429B032B108B484B520C09FC28DC40FCA5DCA
:400D4000CCCFCECED020D682D830E040E210E660E80433813710CC709F01A780AB10EA20031057109F01A780C010D4409B109F01A7900108050413047401C00CC408DE0426
:400D80009304990CA401A740AB408801990CA401A740AF04E00108080B040F80990CA740C20E04808040AB10AF81B710C080E080EA40EE9000100840670883208B04990C4C
:400DC0009A04AC08AF04B108B604C002C202D801E001EA01EC08050211041840524057205B085D086104660479047C4089028A40990C9A049B08A320AB08B040B410C004E6
:400E0000C408C608D406D603D803DE06E201E401EA0900030A010C010E0310011A011C01002A000000000000FF5900248208000041000006C3000001F3180C001C7FE300A6
:400E40000010F30008590022040000000C6700180F01F080C0801C400F1F2C200080A020000000046402030005C0E0000AFFFFFF62A0F0410C00000000000212040404040B
:400E8000000000010000000000004002001030100010101200000000000000000000000000000000000000000000FF0040A8BF00A800000040000D0032000000C0000000E0
:400EC0002000442BBB002000000000000000FF00000000000000FF0000000000000000000000FF00EC0002FCFD00FC000000000003000003FC000000000000000100110193
:400F000000000000000000000000000000000000000000000000000000000000000000000000000000000000000000000000000000000000000000000000000000000000B1
:400F40000000000000000000000000000000000000000000000000000000000000000000000000000000000000000000000000000000000000000000000000000000000071
:400F80000000000000000000000000000000000000000000000000000000000000000000000000000000000000000000000000000000000000000000000000000000000031
:400FC00000000000000000000000000000000000000000000000000000000000000000000000000000000000000000000000000000000000000000000000000000000000F1
:0200000490006A
:0400000000004005B7
:0200000490105A
:04000000BC90ACAF55
:0200000490303A
:02000000EE7C94
:0200000490402A
:4000000000000000000000000000000000000000000000000000000000000000000000000000000000000000000000000000000000000000000000000000000000000000C0
:400040000000000000000000000000000000000000000000000000000000000000000000000000000000000000000000000000000000000000000000000000000000000080
:400080000000000000000000000000000000000000000000000000000000000000000000000000000000000000000000000000000000000000000000000000000000000040
:4000C0000000000000000000000000000000000000000000000000000000000000000000000000000000000000000000000000000000000000000000000000000000000000
:0200000490501A
:0C00000000012E16006900012E24EEE520
:00000001FF