:400000000080002011000000890000008900000008B5044B1A6803F53F5302331A6000F035F800BFFA46004010B5054C237833B9044B13B10448AFF300800123237010BD38
:400040001081FF1F00000000CC040000084B10B51BB108480849AFF300800848036803B910BD074B002BFBD0BDE81040184700BF00000000CC0400001481FF1F0881FF1F91
:400080000000000062B6FEE7FEE700BF08B5104E104D16E029686B68AC68002204E051F8040B43F8040B0432A242F8D1E868002203E0002143F8041B04328242F9D1103555
:4000C000013E002EE6D100F0C7F9FFF7DBFFFEE7010000004405000008B5124A124B1A60124A136843F40073136000230AE0032B03D80F4A52F8231000E00E490E4A42F894
:40010000231001332F2BF2D90C4B1A780C4B1A70094A0C4B1A6000F0D1F800220A4B1A6008BD00BF0004FA050CED00E014ED00E000000000890000000080FF1FBC760040C1
:400140000481FF1F08ED00E00081FF1FFEE700BFF0B40022174611E050F82760F3B226F0FF0608E001EB420511F812406D78A5550132013BDBB2002BF4D10137242FEBD991
:40018000F0BC7047064B1B78DBB203F00701054A11701B09013213704422034B1A707047CF0100496E5800407658004008B50A46002100F082F908BD08B500F073F908BD68
:4001C00038B533222E4B1A8018232E490B7002310A802D4A137040F65F11023211800232137042F20F72294B1A801B2202331A70274828490422FFF7DFFF0622264B1A70E8
:400200005222A3F580731A70244B1B78DBB2244A13704FF4E162234B1A8041F25122023B1A80002419250CE01F4B1B7803F0010343EA440404F003044FF4F07000F0FCF871
:40024000013D0DB1032CEFD115B90320FFF77EFF164A4FF48073138007231370002314490B704820023108701370053213700222104B1A70104A137843F00F03137038BD63
:400280008040004082400040864000408C40004000410040680F0048004300400F010049A14600402242004025420040044000400640004001400040A243004038B572B6D7
:4002C000424A137843F00403137000240CE0404963001A1952000A4423445B00C8589188FFF764FF0134E4B2072CF0D900240FE03749A3001A1952000A4452F8300F234447
:400300005B000B4451681A8FFFF756FF0134E4B2022CEDD94FF090402E49FFF719FF2E4A137843F0020313701032137843F0020313702A4C237843F040032370A2F5863264
:40034000513A137843F010031370254825490822FFF732FF244825490822FFF72DFF244824490A22FFF728FF234824490A22FFF723FF234823490822FFF71EFF2248234924
:400380000822FFF719FF224822490822FFF714FF214822490A22FFF70FFF214821490A22FFF70AFF204A137843F0080313701F4D61232B70FFF704FF81232B70FFF7E2FEAC
:4003C0001B4821460E22FFF7F7FE38BDE8460040D00400009400004803500140A043004002510040100F0048C2510040180F0048F0510040200F0048105100402C0F004876
:4004000022510040380F004832510040400F004842510040480F004850510040500F0048605100405C0F00482243004000480040B0430040000000000230800803D000BFD6
:4004400001380046FCD17047EFF3108072B6704780F31088704700BF0E4B70B51E460E4C0025E41AA410A54204D056F8253098470135F8E700F054F8084B094C1E46E41AFC
:40048000A4100025A54204D056F8253098470135F8E770BD2C0500002C0500002C0500003405000010B5431E0A44914204D011F8014B03F8014FF8E710BD0346024493424D
:4004C00002D003F8011BFAE77047000000000000000001408008000901408003000D0140000300140140800400190140000300400140000A004C0140000200500140200093
:4005000080080140900D00488000800C0140100E0048800080180140900E004880000000F8B500BFF8BC08BC9E4670474D000000D9000000F8B500BFF8BC08BC9E46704777
:4005400029000000580500000881FF1F0800000020000000000000000000000000000000000000000000000000000000000000000000000000000000000000000000000026
:40058000000000000000000000000000000000000000000000000000000000000000000000000000000000000000000000000000000000000000000000000000000000003B
:4005C00000000000000000000000000000000000000000000000000000000000000000000000000000000000000000000000000000000000000000000000000000000000FB
:4006000000000000000000000000000000000000000000000000000000000000000000000000000000000000000000000000000000000000000000000000000000000000BA
:40064000000000000000000000000000000000000000000000000000000000000000000000000000000000000000000000000000000000000000000000000000000000007A
:020000040003F7
:0200000480007A
:4000000001450040085200400A640040066500405D040140370501406D0601404C07014021080140480901406A0A0140460B0140100C01404D0D0140660E01403E0F014062
:400040005B1401405015014060160140451701403018014055190140611A0140631B01400340014003410140074201400643014005440140034501400546014007470140D8
:40008000074801400E4C0140204D014007500140015101407E0209200C4428C129582C02602061A87C408472860F8738883889728A388C0F8D728E388F0F8438850F860FBC
:4000C000870D88728A72000F011002F004F30518060C088209080C410F01110112F3138014FF157F181C19391AE31B441F062008240425392742280C29672B182CC330C0F1
:400100003180322C3320340F351F361C374039803A283B203F044004450449FF4A074BFF4C404D204EF04F05500856025712580459045A045B045C115D115F01604061A8D6
:400140006240632083038708891C8B038C028E45931C9414962A99019B0EA009A232A49FA89FA901AB16AC80B007B218B31AB460B50FB680BB28BE10D804D904DC01DF0136
:40018000002403410440060109280B800E1010A81201148015581701180419151A061C681D401E111F402160220423402510271029142F08316833013601371038283A0224
:4001C0003B403D203F0642404B0852045A08695870BC7202810483409840AC40C08FC22EC4FFCA26CCAFCEEFD001D602EE08010102080453051806040722085309380A0CBA
:400200000B0411121320140A154016541706180319201A441B182528282029202A453240333E340F35013630374038803A203E043F5040264103450C47EB483149FF4AFFDA
:400240004BFF4EF04F44500C5401580459045A045B045C115D115F0166C06A406B02821C8461860E8A088B028F019302945C960398619A169B01AA23B060B20FB41AB50179
:40028000B702B802BA28BE01BF50C021C103C205C406C50EC6C0C809C9FFCAFFCBFFCC62CDA0CEF0CF41D00CD418D804D904DA04DB04DC01DD11DF01E640E702E910EA30EC
:4002C000EB10ED10EE10EF1200020116021003200408051209200A100E100F08120C160418081A501B201C221D3022A02540260427082D102E082F0430203203351236046A
:40030000382039803D053E12410842054520461048244A024E084F085010560A59015C205D815F0862A08410858091809207930896409704984099019A049B10A004A1102E
:40034000A548A601A709A880B140C07EC266C442CA60CCE5CEECD06ED22CD6F1D80CEE200226047F08080B0212011467161818191A621C011D0120802419266428182C10DB
:4003800030803101321F34383640370238803A283E013F015418580459045B045C025D205F01008804020520071008100A140EA9114415021602172818811A541B041D04D6
:4003C0001E0A1F0120042120224D2440270128082B60302832013340368038143B803D1040014108424043304B405104520159045A205B085F0166806708680469447084E4
:40040000720883019112968897449A809C069E419F01A280A710B110B280B484C075C2F6C4F5CA07CC1FCE2ED00FD208D684D830E404015C03020570070C09090B100F80DC
:40044000120213031514196C1A011B1122022380260127202910311F336034023580360139083A023E503F144003464049FF4A074BFF4C404D204EF04F0550085418580435
:4004800059045A045B045C205D225F01604061A86240632083A08514865389108B0C8C308D108E40910993109431954096C69780983199A09A4E9F03A0ACA10CA243A311A5
:4004C000A51CA608A702A9A0AA8CAF80B00FB2F0B360B48AB580B71FB908BA2ABF10C036C102C5E0C7CBC832C9FFCAFFCBFFCEF0CF44D00CD804D904DA04DC22DD02DF01BF
:40050000E6C0EA40EB02050406020A880D2812401304150116101720184419401D381F0520102111220124282680272029042A112F66311032013308351436893820390118
:400540003B4A3C803D254010452849044E084F0252105602570A5802600461408B1291149380944097109C849F01A040A110A201A320A711AA02AE10B080B228C0A0C26A6E
:40058000C47CCAF7CCF7CEFFD062D220D601D80CEE040101160718042A0130013204330134023F045401580459045B045C035D205F010044011002040A660D200F201090EF
:4005C000118013241404180419921A201D201E201F0222272302260429152B0231803218330135013602384039203A063D013F02404041104204430849904B0851045A0809
:400600005C805D015E085F1068046A806B10708071047324841085809124924093809508968097089A049D829F12A040A150A201A328A404B010B340B604C007C26FC44F8C
:40064000CA0FCC0FCE8FD007D20CD6F2047307021020125819011A801C421D011E2522802473250128112A262F0230703102320C3480350136033E143F014004454049FF6F
:400680004A074BFF4C404D204EF04F0550085418580459045A045B045D025F01604061A862406320820884A18540860E89038B048C408E839308953396809704981C9933B9
:4006C0009AA39B0C9E1CA52AA704A8A1AA16AF15B080B21AB30FB40FB540B660B730B880B980BA28BB08BE01BF50C021C103C5EBC6C0C70EC81BC9FFCAFFCBFFCEF0CF44FF
:40070000D00CD401D804D904DA04DB04DC22DD22DF01E6C0EA40EB02000801080505060109400A410B080D200E220F20102012041302172018041A411B081C601D2C1E0292
:400740001F2021102340272929882F2130203240331035043601372039083A403B403F284301451846014720484049014D0552015301571459025C405D015E205F086004C9
:400780006240C0B4C2EBC44ECA5ACCECCE62D071D6F1D80C02010E0115021B0123013501360137023A083B083E403F504006454049FF4A074BFF4C404D204EF04F0550083A
:4007C0005418580459045A045B045C125D225F01604061A862406320808083408520881D899C8A608B028E409109931094189624970399CC9B119C029E2CA450A510A6255B
:40080000A81DA9D0AA20AB0CAD14B004B278B3C0B480B51FB603B720B880B908BA08BE11BF44C061C102C5E0C6CBC80EC9FFCAFFCBFFCEF0CF44D00CD401D804D904DA045E
:40084000DB04DF01E6C0EA40EB020002030205620E100F2216201710180119081D401E461F0820042148272528802D242E802F0832103304360137143D203E2A3F024602C0
:4008800047104A084B024D225020568057105B025D025E5460058210850887018A018D408F0291049202970298809A089B129F20A001A110A208A301A420A508A601A70874
:4008C000AB02AC01AF01B008B102B620C0D9C2A0C460CA71CCE6CEE0D030D224D6F1D80CE002E408E604EA02EE090430051D064008310A4E0B100D080E080F1111201431AE
:4009000016C61A5320AC224325022714291D2E8C300F310332F0330C348A35203710390A3A2A3F544002450449FF4A074BFF4C404D204EF04F0550085401580459045A04B6
:400940005B045C225D205F01604061A86240632081108510870C89148E02920195209703990C9B119D099F10A11CA302A602B002B120B31FB601BE01BF01C036C102C50C62
:40098000C6B0C7E0C829C9FFCAFFCBFFCEF0CF44D00CD280D405D804D904DA04DB04DC23DD32DF01E6C0EA40EB020180051806010B400C200E1012201680174019821C8045
:4009C0001D111E141F04220524042648274029012C202F143110320433403402360238203A013B0A3CA03E8442144720481049084A104B204D044F065010520258485B0148
:400A00005C065EA0734089808E08970498C09B10A110A508A601A709B4A0B704C0E1C268C494CA61CC8ECE77D026D204D6FBE010EA02EE0A02E3043C06C3088210FF14F3B6
:400A4000160C181F1AE01C4120C32404280C2C083010320F342C36C03A083E0140204104461D4720482C49FF4AFF4BFF4DA04F0450185602571058045A045B045C025D23DF
:400A80005F01604062C06440654066C068C06AC06CC06EC00008030204020504070409040A040C010E291002110416021729181119021A041B021E621F2021082211230136
:400AC000289129802B052E042F103080310A3220330838883B10401D4404450149804A084B045240554157105E406D506E106F1075207602772888049088910894129621EE
:400B000097CD981099049A089C0E9D209E429F60A080A120A20CA304A468A508A650A751B321B440B601C075C2F6C4F5CA0FCC0FCE0ED0AED20CD610E480EA12EE0A008276
:400B400004F30518060C09010AE30C1F0EE00FA6130114C3151917E2181C19391AE31BC41CFF1D10200824042508280C29E72B182C412DFF30C0313832103398340F351F34
:400B8000362C374039803AA03B283E0456025711580459045B045C225D205F01811483A98401897C9120935295489725997C9E02A602A801AC01B170B202B303B50CB601C1
:400BC000B780BE04BF04C035C104C206C402C6E0C70CC818C9FFCAFFCBFFCC62CDA0CEF0CF41D00CD804D904DA04DC22DD02DF01E640E702E910EA30EB10ED10EE10EF128B
:400C0000001401820710084009200B200D401028120113011558180419801AA01F842140222823502641272C2A082B093080322936013719388839203E114202434044609C
:400C4000472049804B804C014E044F80550457205A205C205E20680669047028720273017BC07C027E408320844087018A018D0490989178921A932094069504960197D821
:400C800099029A099B109C029F45A080A120A210A308A42EA660A701AA01AD40AE04AF20B0C0B112B208B505B601B740C02FC287C4EFCA0ECCEFCEAED0E0D230D604E02215
:400CC000E410E640EA1033813640CC709F01A640A780034050089F01A640A780C010D4209F01A640A780AB40B008EC80010205011020C00CC4089903B420EE08932099037F
:400D0000A902B310E80408080B040F40821093209903C20E04108C10AE40AF81C080EA40EE500208094060209220932098209903AC08AF44B420C002C202D802E80206402D
:400D400010101B0252205A205B015D0261016720778078107B0287018A608F80922093209903B140B608C004C408C608D405D603D803DC01DE06E004E408E601EE06000F13
:400D80000A030C050E0D100F1A0F1C0C002A0000000000009F3C004200000023091C3261000000040218450014082A0000100000000400809F7F000000670018800000000E
:400DC00080800738181F6040008000200000400034020500010000CE30FFFFFF62A0F0410C000000000002110404040422220001000000000000400200103010001010125B
:400E00000000000000000000000000000000000000000080F3010C0041000006FF7F0000C30000010F10F0000039F3421C08E30008390044041800000C67001882800000F7
:400E4000C01F2C200F801C4000A028020000001462040500030E000C11FFFFFF62A0F0410C00000000000212040404040000000100000000000040020010301000101012C0
:400E80000000000000000000000000000000000000000000E70C0000001F00C044002AC30041002021D34A0C021C15C30008000000040000E782000000C3000080DF0000F7
:400EC0006020800F071018C0000000080000401023050600010C0E0005FFFFFF62A0F0410C000000000000000404040022020001000000000000400200103010001010121D
:400F000000000000000000000000000000000000000000000000FF0040A8BF00A800000040000D0032000000C00000002000442BBB002000000000000000FF0000000000BB
:400F40000000FF0000000000000000000000FF00EC0002FCFD00FC000000000003000003FC000000000000000100110100000000000000000000000000000000000000007B
:400F80000000000000000000000000000000000000000000000000000000000000000000000000000000000000000000000000000000000000000000000000000000000031
:400FC00000000000000000000000000000000000000000000000000000000000000000000000000000000000000000000000000000000000000000000000000000000000F1
:4010000000000000000000000000000000000000000000000000000000000000000000000000000000000000000000000000000000000000000000000000000000000000B0
:401040000000000000000000000000000000000000000000000000000000000000000000000000000000000000000000000000000000000000000000000000000000000070
:0200000490006A
:0400000000004005B7
:0200000490105A
:04000000BC90ACAF55
:0200000490303A
:0200000010EB03
:0200000490402A
:4000000000000000000000000000000000000000000000000000000000000000000000000000000000000000000000000000000000000000000000000000000000000000C0
:400040000000000000000000000000000000000000000000000000000000000000000000000000000000000000000000000000000000000000000000000000000000000080
:400080000000000000000000000000000000000000000000000000000000000000000000000000000000000000000000000000000000000000000000000000000000000040
:4000C0000000000000000000000000000000000000000000000000000000000000000000000000000000000000000000000000000000000000000000000000000000000000
:0200000490501A
:0C00000000012E16006900012E1C115496
:00000001FF