:400000000080002011000000890000008900000008B5044B1A6803F53F5302331A6000F035F800BFFA46004010B5054C237833B9044B13B10448AFF300800123237010BD38
:400040002081FF1F000000005C050000084B10B51BB108480849AFF300800848036803B910BD074B002BFBD0BDE81040184700BF000000005C0500002481FF1F0881FF1F4F
:400080000000000062B6FEE7FEE700BF08B5104E104D16E029686B68AC68002204E051F8040B43F8040B0432A242F8D1E868002203E0002143F8041B04328242F9D1103555
:4000C000013E002EE6D100F00FFAFFF7DBFFFEE701000000D005000008B5124A124B1A60124A136843F40073136000230AE0032B03D80F4A52F8231000E00E490E4A42F8BF
:40010000231001332F2BF2D90C4B1A780C4B1A70094A0C4B1A6000F019F900220A4B1A6008BD00BF0004FA050CED00E014ED00E000000000890000000080FF1FBC76004078
:400140000481FF1F08ED00E00081FF1FFEE700BFF0B40022174611E050F82760F3B226F0FF0608E001EB420511F812406D78A5550132013BDBB2002BF4D101372A2FEBD98B
:40018000F0BC704708B50A46002100F0DEF908BDF8B51D4B1B78DBB21C4E3478E4B21C4F3D78EDB203F007011A4A11701B090132137044F00303337045F003033B704FF4C2
:4001C0007F52154B1A804FF47F7240331A804023124A137002321370063213700232137021220F4B1A70F0230E4A13702021033211702D3213700A2000F05CF93D703470DA
:400200004422094B1A70F8BDCF010049F8460040F94600406E5800400C51004001590040235B0040285B00407658004008B500F081F908BD38B50E22354B1A801823354907
:400240000B7002310A80344A1370332204310A8002310B7002310A8002310B7002310A802E4A137040F65F1204310A8002310B7002310A8002310B7002310A80284A13702F
:40028000284829490422FFF7D1FF0622274B1A705222A3F580731A70254B1B78DBB2254A13704FF4E162244B1A8041F25122023B1A80002419250CE0204B1B7803F00103F2
:4002C00043EA440404F003044FF4F07000F0FCF8013D0DB1032CEFD115B90320FFF736FF174A4FF48073138007231370002315490B704820023108701370053213700222B9
:40030000114B1A7003F2A1331A78FF221A7038BD804000408240004086400040924000409E40004000410040D0140048004300400F010049A14600402242004025420040A9
:4003400004400040064000400140004038B572B6404A137843F00403137000240CE03E4963001A1952000A4423445B00C8589188FFF708FF0134E4B2062CF0D900240FE06D
:400380003549A3001A1952000A4452F82C0F23445B000B4451689A8EFFF748FF0134E4B2022CEDD94FF090402C49FFF7D1FE2C4A137843F0020313701032137843F00203CC
:4003C0001370284C237843F040032370A2F58632513A137843F010031370234823490822FFF724FF224823490A22FFF71FFF224822490A22FFF71AFF214822490A22FFF7FE
:4004000015FF214821490822FFF710FF204821490822FFF70BFF204820490A22FFF706FF1F4820490822FFF701FF1F4A137843F0080313701D4D61232B70FFF7FBFE8123F1
:400440002B70FFF7A5FE1A4821460E22FFF7EEFE38BD00BFE846004060050000AC00004803500140A04300400251004080140048C051004088140048F05100409414004826
:4004800010510040A014004822510040AC14004842510040B414004850510040BC14004862510040C81400482243004000480040B043004008B5034B1B7A03FB00F000F013
:4004C00003F808BD0C81FF1F0230800803D000BF01380046FCD17047EFF3108072B6704780F31088704700BF0E4B70B51E460E4C0025E41AA410A54204D056F82530984720
:400500000135F8E700F052F8084B094C1E46E41AA4100025A54204D056F8253098470135F8E770BDB8050000B8050000B8050000C005000010B5431E0A44914204D011F8EA
:40054000014B03F8014FF8E710BD03460244934202D003F8011BFAE7704700000000000030510040100080000140800F001401408006001B0140000100400140000A004C23
:400580000140000200500140200000006052004078130048060000000140801300488000801A01400014004880000000F8B500BFF8BC08BC9E4670474D000000D900000084
:4005C000F8B500BFF8BC08BC9E46704729000000E00500000881FF1F1800000020000000000000000000E02EC05D00001800000000366E01000000000000000000000000A7
:4006000000000000000000000000000000000000000000000000000000000000000000000000000000000000000000000000000000000000000000000000000000000000BA
:40064000000000000000000000000000000000000000000000000000000000000000000000000000000000000000000000000000000000000000000000000000000000007A
:40068000000000000000000000000000000000000000000000000000000000000000000000000000000000000000000000000000000000000000000000000000000000003A
:4006C00000000000000000000000000000000000000000000000000000000000000000000000000000000000000000000000000000000000000000000000000000000000FA
:020000040003F7
:0200000480007A
:40000000014500400B520040025B00400B640040086500401A000140350101406002014050030140620401405D0501405B060140540701407B08014058090140710A0140F1
:40004000550B01406C0C0140500D01406E0E0140450F0140621401405A1501406B1601404B17014072180140671901403A1A01405B1B0140184001401A41014012420140C8
:400080000B430140144401401C450140164601400C4701400648014008490140144C0140234D014008500140025101407E020059013C082009200C4420A9219528C82991C5
:4000C0002C027C4027842F84800F8372840F8538860F8738883889728B0F8C0F8F0F8438857286388772887289388A0D8B7284028501860D870E8F0F920F940A9605A50CEC
:40010000A703A80BA90BAA04AB04B002B102B208B304B401B501B604B708D804D904DC66DF0103280508080809040E400F2010281140140819081A401B381CA81F402190A3
:4001400022222310240A2604278029042AA22F283190320A3B503D083E4041114220480149024A084B4050805A085B62682869406B0488508C05C026C234C447CA6FCC0F4E
:40018000CE5CD007D20CD60FE258E6E00104060F0B011409160617021C0A1E052008220730013202330234043504360837013F104003474049FF4A074BFF4C404D204EF0B5
:4001C0004F055008580459045A045C665D025F01604061A86240632080FF84C3859F880C899F8CF38D808E0C92C394829514972A99029B459C2F9ED0A008A404A841AC2C87
:40020000AD09AED3AF32B00FB160B210B318B420B507B6C0B780B808BA02BE10BF01C004C640C9FFCA07CBFFCC40CD20CEF0CF05D008D602D711D804D904DA04DB04DC332D
:40024000DD37DF01E040E1A8E240E320004801810204071009880A800E200F021020120213221701184019201A021B081E941F80200A210922502504270929042A84310896
:400280003210370439543D22430244104A80501052105641592069547020711472027302801082808320858086208E1495029608988099029B049D149EA2A080A180A226E2
:4002C000A401A504A608A880AB22AC04AF40B380B740C02FC2ADC41FCA08CC46CEAED041D604E004E241E611EA01EE210410070808800A030C5C0D0A0E020F5410091210DB
:4003000014701503160C1744181419531B0C1D201F4521802220246C261129532B043060313032803380341F350F3740380239023B203E053F444021410346BE470C481C95
:4003400049FF4AFF4BFF4EF04F44500C5401580459045A045B045C775D775F0166C06A406B02805C8101820383028502874189088B048D208E088F909104930899109A1C9E
:400380009B209C619E0EA223A461A616B00FB260B33FB580B61AB740B808B908BAA2BE04BF04D418D804D904DB04DC62DD70DF010080012002100501060109200A200B40E5
:4003C0000E0A11081280140115811640170419281B021C081D091E42200421012254234024012610271028802A2030083290361037013A883C013DA03E043F0240044220F6
:400400004380441045084808491050085160580559105A805E01640267086DA06E047E807F808402868089098A088E1092029608988099029A519B099C109F10A080A2A0D7
:40044000A308A511A610A703AD01AE08B244B780C097C2CEC43CCA05CCAECEFAD00ED68FD830E408E643EA68EE2000030120020C034507800C0D0E0211531304140615534B
:400480001609170C1F802103234427082A0F2D0A2F5430023180320433303408350F3601374039083B203F414034410146BC47E0482C49FF4AFF4BFF4EF04F44500C540138
:4004C000580459045A045B045C265D225F0166C06A406B028240842086038A808B028C108D01901C92029409961098149B049F02A280A304A640A810AA0CAC0CAE11B02065
:40050000B21FB301B480B502B640B704BB02BE51BF54D418D804D904DB04DC72DD30DF01010A020103080401070109280A400B200E201081112012201710180419481B014E
:400540001C201E041F41208222082304244025182644270428802E402F903024324834013601374439803A103D09440146404704552157805A025C205E805F0A600461403A
:40058000841086048B018C489001918192429601978A99029A419B199C049F04A084A231A308A501A604A904AA20AC40AE80AF40B701C09FC22EC44FCAD1CCDCCECCD0D018
:4005C000D6F1D80CE280EA46001202200418059F062208280D80140115021606174519091B321C381D141E041F2A24202618299F2C203118323E33603507360137803E4058
:400600003F044064410342054402450C470E481149FF4AFF4BFF4C624DA04EF04F41500C5418580459045A045B045C775D775F016640670269106A306B106D106E106F1261
:4006400082E384F38510860C883C89108AC38C1F8EE090FF948295E3970C9B659C419D10A008A18AA324A404A5E3A704A80CA903AB24ACC3AF08B0C0B1C0B210B30FB40F78
:40068000B520B62CB710B902BA20BB08BE04BF11C006C504C9FFCA07CBFFCC40CD20CEF0CF05D008D602D711D804D904DA04DB04DC77DD77DF01E040E1A8E240E32000A64C
:4006C00004400584068808090A020C400E2010A8120215081601180419021A241B401E201F40200A210422842340240825022765284029042A902B802F0830103264352008
:40070000374439143D484508472149084B104D804E084F08511056045A205E026510670269146A806B1070A8720188848A219240931294449521960A972099049A989C91A2
:400740009D099E21A050A180A380A428A680A704AB12AE02B010B284B340C07FC2ADC4AFCA2FCC7ECE56D0E0D234D684D830011C036104100567071808200A030C1C0D1CA7
:400780000E020F62100C1104121114101518160C19081F43200922102304241429102D7F30203158321F331F372039803B0A3E0140324101450E46B0470C481949FF4AFF7D
:4007C0004BFF4EF04F44500C580459045A045C775D075F0166C06A406B028310872C88288A158D408E80912C930399019A809B269C169E29A216A308A440A609A710A82869
:40080000AA13AB03AD01AE02AF0EB080B10FB207B32AB460B540B61BB710B820BA88BB0ABE01BF50C063C102C6CEC70BC81CC9FFCAFFCBFFCEF0CF44D00CD401D804D90498
:40084000DA04DB04DC77DD77DF01E6C0EA40EB0200100188044005200610072009480B420E010F08110212201410168518101A401D041E851F8020A021812540260227185D
:40088000280129012A202C802F163028328135103602380439023B803D053F804158441046044B044D204E0452205308561857405C825F286504660478027B40864087041A
:4008C00089048D10918093509520970499809D08A080A109A708AA10AB02AF40B040B510B704C0C7C2CCC4FCCAFDCCAFCEDBD06ED220D6F0E0E0E641EE050009021003409F
:400900000420051B0603076008100A0C0D1B0F20100C1211141C1602184024102504272929182B212C142D502F2330203106321F33783440370139023A803B083E113F4021
:4009400040614105460C47BE483449FF4AFF4BFF4EF04F44500C5401580459045A045B045C735D735F0166C06A406B02816C820883038B138C318D318E468F0E9031920EC6
:40098000946C9531960397469E4C9F4CA613A708B04AB10FB20FB330B430B74AB820B908BA0ABB82BE10BF04C002C540C9FFCA07CBFFCC40CD20CEF0CF05D008D804D9040A
:4009C000DA04DB04DC74DD04DF01E040E1A8E240E3200040010205250A520D200E200F841020162118041A501C801D041E041F4021412310250D2640274029082D902F19AF
:400A00003108334039A23B623D0A3F4040044602482049024B084C014D204F80568958405A205B065D115E8462A68080828085218622904292029650970899219A269D12A3
:400A40009E88A210A440A820A980AD08AF52B204B404B580B604C079C27DC4A4CA72CC0ACEDDD014D230D6FFD80FE203E607EA12EE020520070309140C1D0D100E600F0C9E
:400A8000101D12201450151C1625170218021A2C1D091E401F102110241826242D0C2F11307833203404351F360338803A023E103F0440524101450C46BE480D49FF4AFF57
:400AC0004BFF4EF04F44500C580459045A045B045C445D045F0166C06A406B0280038204839388138A0C8B088C138E0491B19208930E996C9B839F4CA40AA614A840A9B122
:400B0000AB46AC20AE05AF80B030B180B20FB330B440B50FB74AB802B908BA08BBA0BE10BF05C002C640C9FFCA07CBFFCC40CD20CEF0CF05D008D401D804D904DA04DB04A5
:400B4000DC33DD33DF01E040E1A8E240E32000400202052006800701080609200A520B080E801020160A1708184819401A021D011E881F0820242402261027A92802290289
:400B80002D202E802F0A300431403650370138643E223F0140024120472048204A024F01501051805620581159805A045E085F9261186240634082088302845088118A40B2
:400BC000C0D1C21FC4E4CA39CCBACEAED02CD208D6FFD80FE002E64006010D010E04120116021704220423082A022F0730023102320433083504360137013A203E4540562B
:400C000041024203440146E0470C481849FF4AFF4BFF4C624DA04EF04F41500C5418580459045A045B045C545D445F016640670269106A306B106D106E106F128041811070
:400C4000840F857F86F0881C8AE38B048C0891089482953C974298C399189EF3A0FFA303A4F3A567A60CA718A80CA93CAB41AC04AD04AF80B01CB140B22CB380B40FB51F6A
:400C8000B6C0B720B902BA28BB20BF40D602D713D804D904DB04DC22DD20DF0100800180022006A1070409080A600C400E2410081301141015821720180219141B011C8050
:400CC0001E021F282110228823402410274628812C522EA02F283208360237243B403C183E024009410849404A045008521059015F0263066D106F11742076037720848298
:400D0000851488018AA88C2A8D568E42900191029224930594029518984099419C129D829E109F51A004A214A601AC04AD01AE01C0F5C2ECC4FACAF9CCE2CEE8D00ED20C12
:400D4000D681D80CE002E602E810EA08EC20EE0801020315049F09E70C80118014141544162A172A180219E71A45240925212632274A289F30803107321833803407356084
:400D8000366037183E403F40403441064205440145C0470E481249FF4AFF4BFF4C624DA04EF04F41500C5418580459045A045B045C425D225F016640670269106A306B10BA
:400DC0006D106E106F1280FF840F86F08701884189188C1C8D398EE38F4490F3920C96F39706988299089D10A008A17FA404A539A742A80CA901AB80ACC3AD67AF18B0C022
:400E0000B11FB21CB320B42CB580B60FB740B980BAA0BB02BF04D602D712D804D904DB04DC44DD40DF010040012A0711080109180E2410A81380151819411A201B101D8232
:400E40001E242044224424012519260427882801296A2B102E0830A03108372A38443A203D023E104450458248044A084D804E084F0155045A085E02640A6A106B2270A81C
:400E8000722089208A088C819304968198089C809E109F40A004A504A820B041B304B420B501B782C0AFC26EC46FCA4FCCEECEAED0D0D230D682D830E020EA0100FF0110C3
:400EC00004C3084109180D7F0EF31082130614F31539160C1744181C19011AE31B801C0F1EF01F0120082139234224042508280C29672B18301C3140320F331F34C035209C
:400F0000362C378039023A883B083F104005474049FF4A074BFF4C404D204EF04F05500856025711580459045A045B045C775D775F01604061A862406320843E87018B0295
:400F40008C048E8A98289A549F01A302A83EAC12AE65B001B2C0B430B501B60EB702BE04BF50C025C104C201C403C50EC6C0C809C9FFCAFFCBFFCC62CDA0CEF0CF41D00C16
:400F8000D418D804D904DA04DB04DC07DD77DF01E640E702E910EA30EB10ED10EE10EF1201800202031004080520068007010A080D0A0E0910021110172A181019811A08B0
:400FC0001C401D281E011F4420042280265427402BC02C202F443002318032013520364437013A103B043D803EE240104244438048014B044E204F40521056015808590258
:401000005A085E20600462806D486F0874207622772A7E087F0483048D108F409008911092049340944095419602972099029B119C089D319E01A001A1C3A340A504A62B40
:40104000A708A901AA04AF40B001B148B640C0F5C2F2C473CAE1CCF8CEB6D00FD218D621D80CE040E210E604E808EC20EE0100180110020603A8093F0A010C040D090E0A4F
:401080000F52122015221751193F201E220126202D04300C31383203330334203504361037C03A083E103F404030410245D24610480B49FF4AFF4BFF4DA04F04501852801D
:4010C0005405580459045A045B045C785D555F11604062C06440654066C068C06AC06CC06EC000510240048007640B800C880E080F801020110215021608170818511A14DA
:401100001D201E421F1821092220230A265627402B022CA82E402F28310833143626388039123D803E283F81410443204520470A482049014C084D014F8051105601594104
:401140005A045E206D106F1273407480762877207B04804082108640874089548A408B408C408E018F0195019720A141A304A601AD20B120B402C0FBC2F8C47CCAB8CCE644
:40118000CEFDD0E6D230D62BDE04E08BE220E484E660E810EC20EE08310132403688381050205520581059045F40610266106702862089208A108D048E088F01CCF0CE1045
:4011C000D4E0D6E0D8C0E2105102520855085602590860086404664080108D0A9410968097409A609D01A420A680AC10AE40B102D4E0D6E0D8C0E680EA10EE40010453043F
:40120000562082408D0196809A209C049D019E02A508A688B020B340B408C010D460E680850886088B0491049708A508A688AC04B602E250EA100280030105040704088007
:4012400009020C81130173808780888089028A018C02C00FC20FC408DC01E204E607004003400540068008200B200C080E01808081088301840487019301960197209904A0
:401280009B01A280A40AAC08AF10B001B480B704C00FC20FEE0E000805081B0883088B048D0499049C809D08A280A406A840AB40B140B420B680C00CC608E001E602EA03E8
:4012C000EE08088009040C024401930899049C80A280A402A504C20ED0042080240889049104A680C86016408640AE80B040B404C420E010EE10020808101F803402670841
:40130000828093089A409C01A280A340A904AE40B740C002C202C601CC01D801EC02040110101B015240574059085E016102660478107B0181088204850286018C019A40A2
:40134000A340AF80B011B402B608C004C408C608D406D603D803DC01DE02E608E808EA04EC04EE0200DC08DC0ACC0C800E9810B41A341CA000AF01021889000002000000E6
:401380000000000010002000010002010000006600590024047F08000008000000190062001000000218410008670418200190803F1F40808058003802000082000001002E
:4013C0003506020004C00E0006FFFFFF62A0F0410C00000001000000040404043643000100000000000040020010301000101012000000000000000000000000000000004D
:401400000F01D0000C0800008218000041FF2000DF3900C2D3390CC41C00C38608000000C31000000000D30004E700180000000120980F1F1C20C0400080080A000000102D
:401440006305020004C000E022FFFFFF62A0F0410C00000000000211040404047777000100000000000040020010301000101012000000000000000000000000000000002A
:401480000000000000FFFF00010042A9BD00A900000000004000000030000000C00000002000442BBB002000000000000000FF00000000000000000000FFFF000C0002FC3B
:4014C000FD00FC00000000000300FC0000000000010011010000000000000000000000000000000000000000000000000000000000000000000000000000000000000000E1
:4015000000000000000000000000000000000000000000000000000000000000000000000000000000000000000000000000000000000000000000000000000000000000AB
:40154000000000000000000000000000000000000000000000000000000000000000000000000000000000000000000000000000000000000000000000000000000000006B
:40158000000000000000000000000000000000000000000000000000000000000000000000000000000000000000000000000000000000000000000000000000000000002B
:4015C00000000000000000000000000000000000000000000000000000000000000000000000000000000000000000000000000000000000000000000000000000000000EB
:0200000490006A
:0400000000004005B7
:0200000490105A
:04000000BC90ACAF55
:0200000490303A
:020000003F08B7
:0200000490402A
:4000000000000000000000000000000000000000000000000000000000000000000000000000000000000000000000000000000000000000000000000000000000000000C0
:400040000000000000000000000000000000000000000000000000000000000000000000000000000000000000000000000000000000000000000000000000000000000080
:400080000000000000000000000000000000000000000000000000000000000000000000000000000000000000000000000000000000000000000000000000000000000040
:4000C0000000000000000000000000000000000000000000000000000000000000000000000000000000000000000000000000000000000000000000000000000000000000
:0200000490501A
:0C00000000012E16006900012E1E3F7149
:00000001FF